:100000000C943E000C9448000C9448000C9448005A
:100010000C9448000C9448000C9448000C94480040
:100020000C9448000C9448000C9448000C94480030
:100030000C9448000C944A000C9455000C94480011
:100040000C9448000C9448000C9448000C94480010
:100050000C9448000C9448000C9448000C94480000
:100060000C9448000C9448000C9448000C944800F0
:100070000C9448000C9448000C94480011241FBEB6
:10008000CFEFD8E0DEBFCDBF0E9486000C94A80061
:100090000C9400001F920F920FB60F921124289A11
:1000A0000F900FBE0F901F9018951F920F920FB6D2
:1000B0000F92112428980F900FBE0F901F90189543
:1000C000209180002093800020918100296020935E
:1000D000810020916F00266020936F008536910586
:1000E00010F084E690E044E6489F9001499F300D6F
:1000F0001124309389002093880080E197E2821BCD
:10010000930B90938B0080938A0008958FEF84B9AE
:1001100085B185B97894C1E0D0E0CE010E9460003D
:1001200083EC99E00197F1F700C000002196C436F6
:10013000D10599F7C3E6D0E0CE010E94600083ECC0
:1001400099E00197F1F700C000002197A9F7E3CFEC
:04015000F894FFCF51
:00000001FF
