:100000000C943E000C9448000C9448000C9448005A
:100010000C9448000C9448000C9448000C94480040
:100020000C9448000C9448000C9448000C94480030
:100030000C9448000C9448000C9448000C94480020
:100040000C9448000C9448000C9448000C94480010
:100050000C9448000C9448000C9448000C94480000
:100060000C9448000C9448000C9448000C944800F0
:100070000C9448000C9448000C94480011241FBEB6
:10008000CFEFD8E0DEBFCDBF0E9459000C949C009A
:100090000C940000E0E8F0E0808183628083E1E876
:1000A000F0E0808189608083109285001092840046
:1000B0000895549A0E944A0010928B0010928A0070
:1000C00080918A0090918B008F3F934080F48091C3
:1000D0008A0090918B00019690938B0080938A0008
:1000E00081EE94E00197F1F700C00000E9CF8FE3C3
:1000F0009DE023E0815090402040E1F700C00000E7
:1001000080918A0090918B00892B71F080918A00F8
:1001100090918B00019790938B0080938A0081EEE1
:1001200094E00197F1F7EACF9FE32DE083E091504F
:0C01300020408040E1F7D8CFF894FFCFCA
:00000001FF
