:100000000C943E000C9448000C9448000C9448005A
:100010000C9448000C9448000C9448000C94480040
:100020000C9448000C9448000C9448000C94480030
:100030000C9448000C944A000C9455000C94480011
:100040000C9460000C9448000C9448000C944800F8
:100050000C9448000C9448000C9448000C94480000
:100060000C9448000C9448000C9448000C944800F0
:100070000C9448000C9448000C94480011241FBEB6
:10008000CFEFD8E0DEBFCDBF0E94C9000C94AE0216
:100090000C9400001F920F920FB60F921124289A11
:1000A0000F900FBE0F901F9018951F920F920FB6D2
:1000B0000F92112428980F900FBE0F901F90189543
:1000C0001F920F920FB60F9211242F933F938F938D
:1000D0009F93209188003091890080918A009091AF
:1000E0008B00019690938B0080938A0080918A0008
:1000F00090918B008217930720F010928B00109242
:100100008A009F918F913F912F910F900FBE0F907A
:100110001F901895E1E8F0E0208129602083EFE648
:10012000F0E02081266020839C0140E050E060E404
:1001300072E48FE090E00E94D600215031093093A4
:1001400089002093880010928B0010928A000895F5
:1001500094B5926094BD95B5936095BDEEE6F0E0E0
:10016000908192609083682F70E080E090E00E9420
:10017000B5012FE135E244EF53E40E94410220E053
:1001800030E040E85FE30E9417010E94840167BDF0
:1001900008958FEF84B985B185B98AEF90E00E9408
:1001A0008A0084E10E94A8007894FFCF052E97FB77
:1001B0001EF400940E94ED0057FD07D00E94F50048
:1001C00007FC03D04EF40C94ED005095409530950B
:1001D00021953F4F4F4F5F4F0895909580957095B3
:1001E00061957F4F8F4F9F4F0895A1E21A2EAA1B52
:1001F000BB1BFD010DC0AA1FBB1FEE1FFF1FA217D7
:10020000B307E407F50720F0A21BB30BE40BF50BD3
:10021000661F771F881F991F1A9469F7609570955C
:10022000809590959B01AC01BD01CF010895505878
:10023000BB27AA270E942F010C9407020E94F901F4
:1002400038F00E94000220F039F49F3F19F426F4A0
:100250000C94F6010EF4E095E7FB0C94F001E92F05
:100260000E94180258F3BA176207730784079507AC
:1002700020F079F4A6F50C943A020EF4E0950B2EDA
:10028000BA2FA02D0B01B90190010C01CA01A001E8
:100290001124FF27591B99F0593F50F4503E68F143
:1002A0001A16F040A22F232F342F4427585FF3CF84
:1002B000469537952795A795F0405395C9F77EF455
:1002C0001F16BA0B620B730B840BBAF09150A1F09E
:1002D000FF0FBB1F661F771F881FC2F70EC0BA0F24
:1002E000621F731F841F48F4879577956795B795AC
:1002F000F7959E3F08F0B0CF9395880F08F09927A7
:10030000EE0F9795879508950E94200288F09F57D9
:1003100098F0B92F9927B751B0F0E1F0660F771F29
:10032000881F991F1AF0BA95C9F714C0B13091F01F
:100330000E943A02B1E008950C943A02672F782F98
:100340008827B85F39F0B93FCCF3869577956795E4
:10035000B395D9F73EF490958095709561957F4F50
:100360008F4F9F4F0895E89409C097FB3EF49095F6
:100370008095709561957F4F8F4F9F4F9923A9F07E
:10038000F92F96E9BB279395F6958795779567950D
:10039000B795F111F8CFFAF4BB0F11F460FF1BC051
:1003A0006F5F7F4F8F4F9F4F16C0882311F096E9E4
:1003B00011C0772321F09EE8872F762F05C0662392
:1003C00071F096E8862F70E060E02AF09A95660F4B
:1003D000771F881FDAF7880F9695879597F9089504
:1003E00097F99F6780E870E060E008959FEF80ECE8
:1003F000089500240A94161617061806090608958B
:1004000000240A9412161306140605060895092EF0
:100410000394000C11F4882352F0BB0F40F4BF2B5F
:1004200011F460FF04C06F5F7F4F8F4F9F4F08959F
:1004300057FD9058440F551F59F05F3F71F0479595
:10044000880F97FB991F61F09F3F79F0879508957A
:10045000121613061406551FF2CF4695F1DF08C099
:10046000161617061806991FF1CF869571056105B6
:1004700008940895E894BB2766277727CB0197F95E
:1004800008950E9454020C9407020E94F90138F06A
:100490000E94000220F0952311F00C94F0010C94BE
:1004A000F60111240C943B020E94180270F3959FF0
:1004B000C1F3950F50E0551F629FF001729FBB275B
:1004C000F00DB11D639FAA27F00DB11DAA1F649FF7
:1004D0006627B00DA11D661F829F2227B00DA11DAA
:1004E000621F739FB00DA11D621F839FA00D611D30
:1004F000221F749F3327A00D611D231F849F600D51
:10050000211D822F762F6A2F11249F5750409AF079
:10051000F1F088234AF0EE0FFF1FBB1F661F771F05
:10052000881F91505040A9F79E3F510580F00C94D0
:10053000F0010C943B025F3FE4F3983ED4F38695C0
:1005400077956795B795F795E7959F5FC1F7FE2B70
:10055000880F911D9695879597F90895F894FFCF88
:00000001FF
