:100000000C943E000C9448000C9448000C9448005A
:100010000C9448000C9448000C9448000C94480040
:100020000C9448000C9448000C9448000C94480030
:100030000C9448000C9448000C9448000C94480020
:100040000C9448000C9448000C9448000C94480010
:100050000C9448000C9448000C9448000C94480000
:100060000C9448000C9448000C9448000C944800F0
:100070000C9448000C9448000C94480011241FBEB6
:10008000CFEFD8E0DEBFCDBF0E9469000C94F00036
:100090000C940000E0E8F0E0208123622083E1E896
:1000A000F0E020812B61208326E0880F991F2A959C
:1000B000E1F79C0140E050E060E472E48FE090E002
:1000C0000E94AF00215031093093890020938800AD
:1000D0000895209A549A84E190E00E944A00109278
:1000E0008B0010928A0080918A0090918B008F3F44
:1000F000934080F480918A0090918B0001969093B8
:100100008B0080938A0081EE94E00197F1F700C0A4
:100110000000E9CF8FE39DE023E081509040204034
:10012000E1F700C0000080918A0090918B00892B3C
:1001300071F080918A0090918B00019790938B00D1
:1001400080938A0081EE94E00197F1F7EACF9FE374
:100150002DE083E0915020408040E1F7D8CF052E7C
:1001600097FB1EF400940E94C60057FD07D00E9422
:10017000CE0007FC03D04EF40C94C6005095409579
:10018000309521953F4F4F4F5F4F08959095809543
:10019000709561957F4F8F4F9F4F0895A1E21A2E62
:1001A000AA1BBB1BFD010DC0AA1FBB1FEE1FFF1F1B
:1001B000A217B307E407F50720F0A21BB30BE40B6B
:1001C000F50B661F771F881F991F1A9469F76095B2
:1001D0007095809590959B01AC01BD01CF0108956C
:0401E000F894FFCFC1
:00000001FF
